:100000000C9434000C94BA010C9451000C945100DF
:100010000C9451000C9451000C9451000C9451001C
:100020000C9451000C9451000C9451000C9451000C
:100030000C9451000C9451000C94BF000C9451008E
:100040000C9451000C9451000C9406020C94510035
:100050000C9451000C9451000C9451000C945100DC
:100060000C9451000C94510011241FBECFEFD8E026
:10007000DEBFCDBF14E0A0E0B1E0E2E1FBE002C0F2
:1000800005900D92A03EB107D9F725E0A0EEB4E0AF
:1000900001C01D92A330B207E1F70E94ED040C9459
:1000A00087050C940000CF93DF93EA01DC01FB018C
:1000B00040E050E0BF018D91811511F12191211592
:1000C000F9F04C175D0719F480E090E013C09FE948
:1000D000980F9A3108F480529FE9920F9A3108F4F0
:1000E0002052821751F0082E000C990B821B9109A7
:1000F00027FD9395DF91CF9108954F5F5F4FDACF42
:100100004C175D0709F3082E000C990BFB012081A9
:10011000EDCF259A249A239A229A219A80E48093FB
:100120007C00399A86E880937A002098289A27984C
:100130005F9A26985E9A22985A9AE9E6F0E08081C2
:1001400082608083E89A7894089588E198E00FB6F9
:10015000F894A895809360000FBE90936000FFCF45
:1001600084B5826084BD85B5836085BD89EF87BD18
:10017000EEE6F0E0808182608083789408951F929B
:100180001FB61F9211248F939F93AF93BF938091BB
:10019000FF0490910005A0910105B0910205019620
:1001A000A11DB11D8093FF0490930005A09301054C
:1001B000B0930205BF91AF919F918F911F901FBE89
:1001C0001F901895F8946091FF047091000580913C
:1001D0000105909102057894089580917C00887FB4
:1001E00080937C0080917A00806480937A00809173
:1001F0007A0086FDFCCF8091780090917900089577
:1002000090917C008770987F892B80937C008091EF
:100210007A00806480937A0080917A0086FDFCCF1A
:10022000809178009091790008958130910549F08E
:100230008230910551F0892B61F483B180958170F2
:10024000089588274F9B8395089588274E9B839513
:10025000089580E00895CF93DF93EC01FC01E85FFF
:10026000FE4F8081811589F1CE010E941501DE01CA
:10027000AD51BB4F9C91FE01E052FB4F981771F0BE
:100280002FEF30E792E0215030409040E1F700C07E
:100290000000811102C091E090838C9380818115D0
:1002A000A1F0CC0FDD1FCE5FDE4F888199810297D0
:1002B00029F481E090E09983888306C08881998140
:1002C000019731F4198218821082DF91CF9108953D
:1002D00088819981892BC1F7ECCF4A990DC02FEF06
:1002E00080E792E0215080409040E1F700C000009C
:1002F00088274A9B8395089580E008951092C50051
:1003000087E68093C40088E98093C10086E08093EB
:10031000C20078940895FC01DB0181912D91811533
:1003200071F0211561F09FE9980F9A3108F480521D
:100330009FE9920F9A3108F42052821771F3082E28
:10034000000C990B821B910927FD939508959091BC
:10035000C00095FFFCCF8093C6000895CF93DF9334
:10036000EC018991811103C0DF91CF9108950E9422
:10037000A701F7CF1F920F920FB60F9211242F9360
:100380003F934F935F936F937F938F939F93AF931D
:10039000BF93EF93FF932FEF80E792E021508040CF
:1003A0009040E1F700C000004A991FC082E090E051
:1003B00090930301809302019093050180930401BF
:1003C000909307018093060181E080930801809358
:1003D000090180930A01809300011092EA041092AF
:1003E000E9048BE091E00E94AE01FF91EF91BF9193
:1003F000AF919F918F917F916F915F914F913F91BD
:100400002F910F900FBE0F901F9018951F920F9273
:100410000FB60F9211242F933F934F935F936F93D7
:100420007F938F939F93AF93BF93EF93FF938091AD
:10043000C6008D3011F08A3001F5E091EA04F0E059
:10044000E551FB4F108281E08093E9041092EA04A9
:1004500085E394E00E94AE01FF91EF91BF91AF91CF
:100460009F918F917F916F915F914F913F912F91CC
:100470000F900FBE0F901F901895883011F08F3796
:1004800061F48091EA04811539F38091EA04815086
:100490008093EA048AE191E0DDCF9091EA04933100
:1004A000D8F6E091EA0491E09E0F9093EA04F0E020
:1004B000E551FB4F80830E94A701CECFE0EBF0E037
:1004C000808183688083E1EBF0E0808184608083B9
:1004D000E0E8F0E0808181628083A1E8B0E08C9167
:1004E0008B608C9380818068808384B5836884BDB1
:1004F00085B5836085BD8FEF87BD08950F931F93EA
:10050000CF93DF939C01EB018A01009741F480E3D4
:1005100088831982DF91CF911F910F91089504F57F
:10052000FB014A30510529F48DE2819331952195E3
:100530003109C901B8010E9428058A309105A4F04B
:10054000895ADF018D939B01672B61F41182CE17CD
:10055000DF0700F780819881908389933197F7CFE7
:10056000FB01E7CFFD01E5CF805DEBCFFC01808192
:1005700041E050E08D3219F431964FEF5FEF80E0AB
:1005800090E06AE00BC0689FD001699FB00D112414
:10059000822F220F990BC0978A0F9B1F219130ED5C
:1005A000320F3A3080F39C01249FC001259F900DAB
:1005B000349F900D11240895CF92DF92EF92FF9215
:1005C0000F931F93CF93DF93CDB7DEB72A970FB664
:1005D000F894DEBF0FBECDBF8C0165E374E00E94CE
:1005E0007905009711F0FC0110828EE191E00E94E4
:1005F000AE01C8010E94AE0185E394E00E94AE0105
:100600008BE291E00E94AE01C8010E94AE0185E339
:1006100094E00E94AE016FE371E0C8010E948B017B
:10062000892B41F584E491E00E94AE018AE591E0D6
:100630000E94AE0181E991E00E94AE0181EE91E05D
:100640000E94AE0183E392E00E94AE0189E892E04D
:100650000E94AE018BEA92E00E94AE0189EE92E028
:100660000E94AE0185E293E00E94AE0185E394E032
:100670000E94AE014FE050E06FE773E0C8010E94B6
:100680005300892B59F5C8010F960E94B6028C01C0
:100690000150110903301105F0F4F801E85FFE4F35
:1006A00010828FE893E00E94AE0181E3800F0E94E8
:1006B000A70187E993E02A960FB6F894DEBF0FBE34
:1006C000CDBFDF91CF911F910F91FF90EF90DF9001
:1006D000CF900C94AE0183EA93E0EDCF4EE050E072
:1006E0006BEB73E0C8010E945300892BD1F4C80161
:1006F0000E960E94B6028C010150110903301105BB
:1007000050F7F801E85FFE4F81E080838FE893E0C7
:100710000E94AE0181E3800F0E94A70189EE93E061
:10072000CACF49E050E06AEC73E0C8010E94530070
:10073000892B59F5C80109960E94B6027C010196E1
:1007400031F481E08093000184ED93E0B4CFE114B3
:1007500081E0F806B8F410920001E092010184EF04
:1007600093E00E94AE014AE050E0BE016F5F7F4F10
:10077000C7010E947E02CE0101960E94AE0185E370
:1007800094E099CF80E194E096CF68E374E0C801EB
:100790000E948B01892B79F480E00E9400014AE0DD
:1007A00050E0BE016F5F7F4F0E947E028FE394E0B6
:1007B0000E94AE01E0CF68E574E0C8010E948B01A1
:1007C000892B39F481E090E090930301809302013A
:1007D00027C062E674E0C8010E948B01892B39F4BE
:1007E00081E090E0909305018093040119C06EE6CA
:1007F00074E0C8010E948B01892B39F481E090E0FC
:1008000090930701809306010BC069E774E0C8016B
:100810000E948B01892B99F410920301109202011E
:100820002A960FB6F894DEBF0FBECDBFDF91CF91F1
:100830001F910F91FF90EF90DF90CF90089564E8A3
:1008400074E0C8010E948B01892B29F410920501E4
:1008500010920401E5CF61E974E0C8010E948B01A8
:10086000892B29F41092070110920601D9CF6DE966
:1008700074E0C8010E948B01892B19F482E090E09A
:10088000A3CF6AEA74E0C8010E948B01892B19F496
:1008900082E090E0A7CF69EB74E0C8010E948B0171
:1008A000892B19F482E090E0ABCF67EC74E0C801CB
:1008B0000E948B01892B11F40E94A5008DEC94E01D
:1008C000FACECF93DF93EC018230910571F58091E0
:1008D00006019091070181309105A1F082309105C8
:1008E00021F0892BF9F441981DC00E94E20020ED0F
:1008F00037E040E050E00E943C05683E73408105CF
:10090000910588F780910001811559F00E94ED0052
:100910009695879596958795809301018091010121
:1009200087BD419ADF91CF910895FC01EE0FFF1F23
:10093000EE5FFE4F8081918181309105B1F0823070
:10094000910531F0892B71F72097B9F42D98EACFF2
:100950000E94E20020ED37E040E050E00E943C05BC
:10096000683E73408105910578F7209711F42D9A20
:10097000D9CF2197B9F62C9AD5CF219799F62C98F3
:10098000D1CF0F931F93CF93DF9382E00E9400019A
:100990008C0183E00E940001EC0184E00E940001D0
:1009A00016950795169507950093B300D695C795AC
:1009B000D695C795DD27D0938B00C0938A00969576
:1009C00087959695879599279093890080938800BD
:1009D000DF91CF911F910F910895CDB7DEB7649746
:1009E0000FB6F894DEBF0FBECDBF0E94B0000E94CC
:1009F0007E010E945E020E94890080E090E00E94D9
:100A00002B0181E090E00E942B0182E090E00E94A7
:100A10002B0180E090E00E94610481E090E00E9460
:100A2000610482E090E00E9461040E94C104809110
:100A3000E904811511F36BEE74E0CE0101960E947A
:100A400072051092E904CE0101960E94DC02D5CF16
:100A500097FB072E16F4009407D077FD09D00E946B
:100A60005E0507FC05D03EF4909581959F4F089553
:100A7000709561957F4F0895A1E21A2EAA1BBB1BAA
:100A8000FD010DC0AA1FBB1FEE1FFF1FA217B3075A
:100A9000E407F50720F0A21BB30BE40BF50B661F70
:100AA000771F881F991F1A9469F760957095809534
:100AB00090959B01AC01BD01CF010895AA1BBB1B02
:100AC00051E107C0AA1FBB1FA617B70710F0A61B4E
:100AD000B70B881F991F5A95A9F780959095BC016F
:100AE000CD010895FB01DC0101900D920020E1F79A
:100AF0000895DC0199278D91882341F0FB01019035
:100B000008160110E1F7B9F71197CD010895F8948F
:020B1000FFCF15
:100B120001FF0200020002000101015379737465B2
:100B22006D2072657365740D0A000820080050720A
:100B32006F63657373696E673A200050726F636505
:100B42007373656420436F6D6D616E643A20006853
:100B5200656C7000417661696C61626C6520636FDF
:100B62006D6D616E64733A0D0A00312E2047657413
:100B7200414443202D204765742074686520414418
:100B8200432076616C75652066726F6D20746865AE
:100B920020706F74656E74696F6D657465720D0A8D
:100BA20000322E204C65644F6E203C636F6C6F7276
:100BB2003E202D205475726E206F6E207468652061
:100BC2004C454420666F72207468652073706563BB
:100BD200696669656420636F6C6F72202872656450
:100BE2002C20677265656E2C20626C7565290D0A72
:100BF20000332E204C65644F6666203C636F6C6F39
:100C0200723E202D205475726E206F6666207468C5
:100C120065204C454420666F7220746865207370AD
:100C22006563696669656420636F6C6F7220287200
:100C320065642C20677265656E2C20626C7565296F
:100C42000D0A00342E204C6564426C696E6B203CA8
:100C5200636F6C6F723E202D204D616B652074684E
:100C620065204C454420626C696E6B20666F722071
:100C72007468652073706563696669656420636F73
:100C82006C6F7220287265642C20677265656E2C09
:100C920020626C7565290D0A00352E205265736538
:100CA20074202D20526573746172742074686520FB
:100CB200736F6674776172650D0A00362E2044697F
:100CC2007361626C6520627574746F6E203C6E7520
:100CD2006D6265723E202D2044697361626C6520ED
:100CE2006120627574746F6E20627920697473205A
:100CF2006E756D6265720D0A00372E20456E616257
:100D02006C6520627574746F6E203C6E756D6265E1
:100D1200723E202D20456E61626C652061206275F5
:100D220074746F6E20627920697473206E756D62BF
:100D320065720D0A00382E204C6564506F7765721B
:100D4200203C302D3235357C2D313E202D2053650F
:100D520074204C454420696E74656E736974792001
:100D620028302D32353529206F7220656E61626C14
:100D72006520706F74656E74696F6D65746572203D
:100D8200636F6E74726F6C20282D31290D0A006416
:100D9200697361626C6520627574746F6E200042C3
:100DA2007574746F6E20002064697361626C65648F
:100DB2000D0A00496E76616C696420627574746F05
:100DC2006E206E756D6265720D0A00656E61626CF1
:100DD2006520627574746F6E20006C6564706F7745
:100DE20065722000506F74656E74696F6D6574650D
:100DF2007220636F6E74726F6C20656E61626C65D7
:100E0200640D0A00426C7565204C454420696E747D
:100E1200656E736974792073657420746F3A20006B
:100E2200496E76616C696420706F776572206C65BB
:100E320076656C202875736520302D323535206F2C
:100E420072202D31290D0A006765746164630041C7
:100E52003020506F74656E74696F6D6574657220B1
:100E620056616C75653A20006C65646F6E20726520
:100E720064006C65646F6E20677265656E006C65F8
:100E8200646F6E20626C7565006C65646F666620C7
:100E9200726564006C65646F666620677265656E74
:100EA200006C65646F666620626C7565006C6564D3
:100EB200626C696E6B20726564006C6564626C6959
:100EC2006E6B20677265656E006C6564626C696E3C
:100ED2006B20626C756500726573657400556E6B8C
:100EE2006E6F776E20436F6D6D616E640D0A000048
:00000001FF
