:100000000C9434000C9451000C9451000C94510049
:100010000C9451000C9451000C9451000C9451001C
:100020000C9451000C9451000C9451000C9451000C
:100030000C9451000C9451000C9475000C945100D8
:100040000C9451000C9451000C9451000C945100EC
:100050000C9451000C9451000C9451000C945100DC
:100060000C9451000C94510011241FBECFEFD8E026
:10007000DEBFCDBF11E0A0E0B1E0E0ECF6E002C0F1
:1000800005900D92A43AB107D9F721E0A4EAB1E0B6
:1000900001C01D92A73BB207E1F70E94B0020C9489
:1000A0005E030C940000259A249A239A80E480939E
:1000B0007C00399A86E880937A002098289A2798BD
:1000C0005F9A26985E9A22985A9A089584B582601B
:1000D00084BD85B5836085BD89EF87BDEEE6F0E020
:1000E000808182608083789408951F921FB61F924A
:1000F00011248F939F93AF93BF938091AD01909103
:10010000AE01A091AF01B091B0010196A11DB11D4A
:100110008093AD019093AE01A093AF01B093B00175
:10012000BF91AF919F918F911F901FBE1F90189507
:10013000F8946091AD017091AE018091AF01909102
:10014000B0017894089580917A00806480937A0059
:1001500080917A0086FDFCCF8091780090917900A3
:1001600008958130910549F08230910551F0892B35
:1001700061F483B180958170089588274F9B8395A2
:10018000089588274E9B8395089580E00895CF9326
:10019000DF93EC010E94B100FE01EC54FE4F908110
:1001A000DE01AF54BE4F981771F02FEF30E792E0A9
:1001B000215030409040E1F700C00000811102C0A2
:1001C00091E09C9380838C918115A9F0FE01EE0F44
:1001D000FF1FE050FF4F80819181029729F481E059
:1001E00090E09183808306C080819181019731F4F2
:1001F000118210821C92DF91CF91089580819181AC
:10020000892BC1F7ECCF4A990DC02FEF80E792E020
:10021000215080409040E1F700C0000088274A9BB1
:100220008395089580E008951092C50087E6809335
:10023000C40088E08093C10086E08093C2000895E6
:100240009091C00095FFFCCF8093C6000895CF9396
:10025000DF93EC018991811103C0DF91CF91089563
:100260000E942001F7CF9C0180E06150770B482F5E
:1002700050E0861717062CF0280F311DF901108267
:1002800008959091C00097FF07C09091C600420F5B
:10029000531FFA0190838F5F9091C600F901E80F18
:1002A000F11D9A3049F39D3039F38F5F9083DFCF92
:1002B000399AE0E8F0E0808181688083E1E8F0E04D
:1002C00080818B60808308950F931F93CF93DF937A
:1002D0009C01EB018A01009741F480E38883198235
:1002E000DF91CF911F910F91089504F5FB014A30E2
:1002F000510529F48DE28193319521953109C90188
:10030000B8010E9406038A309105A4F0895ADF01E2
:100310008D939B01672B61F41182CE17DF0700F7E5
:1003200080819881908389933197F7CFFB01E7CF44
:10033000FD01E5CF805DEBCF0F931F93CF93DF934C
:10034000CDB7DEB72A970FB6F894DEBF0FBECDBF8C
:100350008C010E94270149E050E066E071E0C8018D
:100360000E945003892B31F481E090E090930101C9
:1003700080930001F8018081813671F480E191E081
:100380002A960FB6F894DEBF0FBECDBFDF91CF9196
:100390001F910F910C9427014BE050E064E171E054
:1003A000C8010E945003892B39F481E090E09093BA
:1003B0000301809302011DC04AE050E060E271E059
:1003C000C8010E945003892B39F481E090E090939A
:1003D0000501809304010DC04AE050E06BE271E03A
:1003E000C8010E945003892B79F4109201011092E8
:1003F00000012A960FB6F894DEBF0FBECDBFDF9185
:10040000CF911F910F9108954CE050E066E371E0A9
:10041000C8010E945003892B29F410920301109205
:100420000201E7CF4BE050E063E471E0C8010E94B5
:100430005003892B29F41092050110920401D9CFA1
:100440004CE050E06FE471E0C8010E945003892B3A
:1004500039F482E090E09093010180930001C9CFCC
:100460004EE050E06CE571E0C8010E945003892B1A
:1004700019F482E090E09BCF4DE050E06BE671E034
:10048000C8010E945003892B19F482E090E09FCFAD
:1004900046E050E069E771E0C8010E945003892BF3
:1004A00009F50E94A3004AE050E0BE016F5F7F4F54
:1004B0000E94640180E891E00E942701CE0101962C
:1004C0000E9427018AE00E9420018DE02A960FB643
:1004D000F894DEBF0FBECDBFDF91CF911F910F917A
:1004E0000C9420018CE891E04BCFCF93DF93EC018B
:1004F000FC01EE0FFF1FE050FF4F808191818130A2
:100500009105B1F08230910531F0892BA1F420974B
:10051000F1F42D9810C00E94980020ED37E040E0E3
:1005200050E00E941A03683E73408105910578F7F8
:10053000209721F42D9ADF91CF910895C130D105F4
:1005400011F42C9AF8CF2297B1F7419AF4CFC13029
:10055000D10511F42C98EFCF229769F74198EBCF92
:10056000CDB7DEB764970FB6F894DEBF0FBECDBF30
:100570000E9466000E9414010E9458010E945300CC
:1005800080E891E00E94270180E090E00E94C7008F
:1005900081E090E00E94C70082E090E00E94C700E6
:1005A00080E090E00E94750281E090E00E94750278
:1005B00082E090E00E9475020E940301811571F0B3
:1005C00082E090E0909301018093000190930301F9
:1005D0008093020190930501809304012FEF81EE37
:1005E00094E0215080409040E1F700C0000064E1B9
:1005F000CE0101960E9433018981811521F0CE013F
:1006000001960E949C018EE991E0BCCF97FB072EDA
:1006100016F4009407D077FD09D00E943C0307FC34
:1006200005D03EF4909581959F4F08957095619502
:100630007F4F0895A1E21A2EAA1BBB1BFD010DC01E
:10064000AA1FBB1FEE1FFF1FA217B307E407F50782
:1006500020F0A21BB30BE40BF50B661F771F881F5E
:10066000991F1A9469F760957095809590959B01F4
:10067000AC01BD01CF010895AA1BBB1B51E107C00E
:10068000AA1FBB1FA617B70710F0A61BB70B881F22
:10069000991F5A95A9F780959095BC01CD010895B1
:1006A000FB01DC014150504030F08D9101908019E8
:1006B00019F40020B9F7881B990B0895F894FFCF1F
:1006C0000200020002004C65644F6E205245440057
:1006D00048454A004C65644F6E20475245454E00E0
:1006E0004C65644F6E20424C5545004C65644F6626
:1006F0006620524544004C65644F6666204752456B
:10070000454E004C65644F666620424C5545004C92
:100710006564426C696E6B20524544004C656442CE
:100720006C696E6B20475245454E004C6564426CC7
:10073000696E6B20424C5545004765744144430047
:100740004144432056616C75653A2000556E6B6ECE
:100750006F776E20436F6D6D616E640D0A00746576
:0407600073740000AE
:00000001FF
