:100000000C9434000C9451000C9451000C94510049
:100010000C9451000C9451000C9451000C9451001C
:100020000C9451000C9451000C9451000C9451000C
:100030000C9451000C9451000C9477000C945100D6
:100040000C9451000C9451000C9467010C945100D5
:100050000C9451000C9451000C9451000C945100DC
:100060000C9451000C94510011241FBECFEFD8E026
:10007000DEBFCDBF13E0A0E0B1E0E8E4F8E002C0ED
:1000800005900D92A634B107D9F723E0A6E4B3E0BA
:1000900001C01D92A936B207E1F70E9476030C94C5
:1000A00022040C940000259A249A239A229A219AD9
:1000B00080E480937C00399A86E880937A002098C7
:1000C000289A27985F9A26985E9A22985A9A0895B5
:1000D00084B5826084BD85B5836085BD89EF87BDA9
:1000E000EEE6F0E0808182608083789408951F922C
:1000F0001FB61F9211248F939F93AF93BF9380914C
:10010000650390916603A0916703B091680301961F
:10011000A11DB11D8093650390936603A0936703AF
:10012000B0936803BF91AF919F918F911F901FBEB5
:100130001F901895F8946091650370916603809103
:100140006703909168037894089580917A008064A1
:1001500080937A0080917A0086FDFCCF80917800B0
:1001600090917900089590917C008770987F892BF9
:1001700080937C0080917A00806480937A008091E3
:100180007A0086FDFCCF80917800909179000895E7
:100190008130910549F08230910551F0892B61F44D
:1001A00083B180958170089588274F9B839508952A
:1001B00088274E9B8395089580E00895CF93DF9321
:1001C000EC010E94C800FE01E75BFC4F9081DE015C
:1001D000AA5BBC4F981771F02FEF30E792E02150E7
:1001E00030409040E1F700C00000811102C091E072
:1001F0009C9380838C918115A9F0FE01EE0FFF1F67
:10020000E050FF4F80819181029729F481E090E0D6
:100210009183808306C080819181019731F411829E
:1002200010821C92DF91CF91089580819181892B5A
:10023000C1F7ECCF4A990DC02FEF80E792E0215033
:1002400080409040E1F700C0000088274A9B8395DA
:10025000089580E008951092C50087E68093C40059
:1002600088E98093C10086E08093C2007894089565
:10027000FC01DB0181912D91811571F0211561F057
:100280009FE9980F9A3108F480529FE9920F9A31B2
:1002900008F42052821771F3082E000C990B821B70
:1002A000910927FD939508959091C00095FFFCCF8B
:1002B0008093C6000895CF93DF93EC01899181115B
:1002C00003C0DF91CF9108950E945401F7CF1F9290
:1002D0000F920FB60F9211242F933F934F935F937A
:1002E0006F937F938F939F93AF93BF93EF93FF93FE
:1002F0008091C6008D3011F08A3001F5E0915003F5
:10030000F0E0EF5AFC4F108281E080934F0310928F
:1003100050038CE192E00E945B01FF91EF91BF914D
:10032000AF919F918F917F916F915F914F913F918D
:100330002F910F900FBE0F901F901895883011F0DD
:100340008F3761F480915003811539F38091500308
:1003500081508093500386E091E0DDCF909150036F
:100360009331D8F6E091500391E09E0F90935003A3
:10037000F0E0EF5AFC4F80830E945401CECFE0EBB7
:10038000F0E0808183688083E1EBF0E0808184602D
:100390008083E0E8F0E0808181628083A1E8B0E0C2
:1003A0008C918B608C9380818068808308950F93FB
:1003B0001F93CF93DF939C01EB018A01009741F4D7
:1003C00080E388831982DF91CF911F910F91089567
:1003D00004F5FB014A30510529F48DE281933195F2
:1003E00021953109C901B8010E94C3038A309105E2
:1003F000A4F0895ADF018D939B01672B61F4118270
:10040000CE17DF0700F78081988190838993319719
:10041000F7CFFB01E7CFFD01E5CF805DEBCFEF929A
:10042000FF920F931F93CF93DF93CDB7DEB72A9739
:100430000FB6F894DEBF0FBECDBF8C016CE172E049
:100440000E941404009711F0FC0110828AE091E0F0
:100450000E945B01C8010E945B018CE192E00E9456
:100460005B0187E191E00E945B01C8010E945B0192
:100470008CE192E00E945B016BE271E0C8010E9496
:100480003801892B41F580E391E00E945B0186E40D
:1004900091E00E945B018DE791E00E945B018DEC91
:1004A00091E00E945B018FE192E00E945B0185E791
:1004B00092E00E945B018CE192E02A960FB6F894DC
:1004C000DEBF0FBECDBFDF91CF911F910F91FF9087
:1004D000EF900C945B016CEA72E0C8010E94380155
:1004E000892B81F40E94A5004AE050E0BE016F5FB5
:1004F0007F4F0E94D70183EB92E00E945B01CE0107
:100500000196D7CF6FEB72E0C8010E943801892BAA
:1005100039F481E090E0909301018093000127C0BD
:1005200069EC72E0C8010E943801892B39F481E03E
:1005300090E0909303018093020119C065ED72E091
:10054000C8010E943801892B39F481E090E0909332
:100550000501809304010BC060EE72E0C8010E94A7
:100560003801892B89F410920101109200012A961A
:100570000FB6F894DEBF0FBECDBFDF91CF911F91B4
:100580000F91FF90EF9008956BEE72E0C8010E940A
:100590003801892B29F41092030110920201E7CF50
:1005A00068EF72E0C8010E943801892B29F410928B
:1005B000050110920401DBCF64E073E0C8010E94E2
:1005C0003801892B19F482E090E0A5CF61E173E056
:1005D000C8010E943801892B19F482E090E0A9CF6C
:1005E00060E273E0C8010E943801892B19F482E0AF
:1005F00090E0ADCF6EE273E0C8010E943801892B14
:1006000059F482E090E0909301018093000190936F
:100610000301809302019BCF84E393E04ECFCF93FD
:10062000DF93EC01FC01EE0FFF1FE050FF4F8081D4
:10063000918181309105B1F08230910531F0892BA3
:10064000A1F42097F1F42D9810C00E949A0020ED9B
:1006500037E040E050E00E94D703683E73408105D8
:10066000910578F7209721F42D9ADF91CF91089585
:10067000C130D10511F42C9AF8CF2297B1F7419AE5
:10068000F4CFC130D10511F42C98EFCF229769F740
:100690004198EBCF0F931F93CF93DF9382E00E949B
:1006A000B3008C0183E00E94B300EC0184E00E945F
:1006B000B30016950795169507950093B300D69548
:1006C000C795D695C795DD27D0938B00C0938A0038
:1006D000969587959695879599279093890080930D
:1006E0008800DF91CF911F910F910895CDB7DEB7AC
:1006F00064970FB6F894DEBF0FBECDBF0E946800AE
:100700000E942B010E94BF010E94530080E090E0F4
:100710000E94DE0081E090E00E94DE0082E090E036
:100720000E94DE0080E090E00E940F0381E090E0F4
:100730000E940F0382E090E00E940F030E944A0390
:100740000E941A01811571F082E090E090930101FE
:10075000809300019093030180930201909305011F
:100760008093040180914F03811581F261E573E06C
:10077000CE0101960E940D0410924F03CE01019606
:100780000E940F02C3CF97FB072E16F4009407D0E8
:1007900077FD09D00E94F90307FC05D03EF490953F
:1007A00081959F4F0895709561957F4F0895A1E2BF
:1007B0001A2EAA1BBB1BFD010DC0AA1FBB1FEE1FDB
:1007C000FF1FA217B307E407F50720F0A21BB30B26
:1007D000E40BF50B661F771F881F991F1A9469F7A2
:1007E00060957095809590959B01AC01BD01CF01FE
:1007F0000895AA1BBB1B51E107C0AA1FBB1FA61768
:10080000B70710F0A61BB70B881F991F5A95A9F7B9
:1008100080959095BC01CD010895FB01DC0101900C
:100820000D920020E1F70895DC0199278D9188232E
:1008300041F0FB01019008160110E1F7B9F711979B
:08084000CD010895F894FFCFEB
:100848000200020002000820080050726F636573FE
:1008580073696E673A200050726F636573736564DD
:1008680020436F6D6D616E643A200068656C70009E
:10087800417661696C61626C6520636F6D6D616E54
:1008880064733A0D0A00312E2047657441444320B1
:100898002D204765742074686520414443207661A3
:1008A8006C75652066726F6D2074686520706F7452
:1008B800656E74696F6D657465720D0A00322E205D
:1008C8004C65644F6E203C636F6C6F723E202D2028
:1008D8005475726E206F6E20746865204C454420F4
:1008E800666F7220746865207370656369666965F0
:1008F8006420636F6C6F7220287265642C206772A5
:1009080065656E2C20626C7565290D0A00332E20F2
:100918004C65644F6666203C636F6C6F723E202D99
:10092800205475726E206F666620746865204C4589
:100938004420666F72207468652073706563696609
:1009480069656420636F6C6F7220287265642C205F
:10095800677265656E2C20626C7565290D0A003416
:100968002E204C6564426C696E6B203C636F6C6F23
:10097800723E202D204D616B6520746865204C45C2
:100988004420626C696E6B20666F72207468652003
:1009980073706563696669656420636F6C6F722044
:1009A800287265642C20677265656E2C20626C75F0
:1009B80065290D0A00352E205265736574202D2097
:1009C8005265736574207468652073797374656DF6
:1009D800202870726573732074686520726573656A
:1009E8007420627574746F6E290D0A0067657461EE
:1009F8006463004144432056616C75653A20006C7D
:100A080065646F6E20726564006C65646F6E206744
:100A18007265656E006C65646F6E20626C7565004A
:100A28006C65646F666620726564006C65646F66E9
:100A38006620677265656E006C65646F6666206225
:100A48006C7565006C6564626C696E6B20726564B8
:100A5800006C6564626C696E6B20677265656E0018
:100A68006C6564626C696E6B20626C75650072659A
:100A780073657400556E6B6E6F776E20436F6D6D86
:060A8800616E640D0A001E
:00000001FF
